:040000000CEF00F011
:10000800FACF02F0FBCF03F0E9CF04F0F7ED14F0DC
:1000180009EF16F06DAE1CD02D0E0001D76F7F0EC4
:100028006D14256E266A000E286E0A0E276EACEC3B
:1000380014F02550300F0001D86F7F0E6D141F6E1D
:10004800206A000E226E0A0E216EC8EC15F01BD035
:100058002B0E0001D76F6DC025F06EC026F0000E84
:10006800286E0A0E276EACEC14F02550300F0001F4
:10007800D86F6DC01FF06EC020F0000E226E0A0E01
:10008800216EC8EC15F01F50300F0001D96F00D059
:1000980044AE28D02D0E0001DB6F43C03AF044C0B7
:1000A8003BF03A1E3B1E3A4A3B2A3AC03CF03BC062
:1000B8003DF03CC025F03DC026F0000E286E0A0E2B
:1000C800276EACEC14F02550300F0001DC6F3CC0FB
:1000D8001FF03DC020F0000E226E0A0E216EC8EC03
:1000E80015F01BD02B0E0001DB6F43C025F044C078
:1000F80026F0000E286E0A0E276EACEC14F0255080
:10010800300F0001DC6F43C01FF044C020F0000E28
:10011800226E0A0E216EC8EC15F01F50300F000138
:10012800DD6F00D05D380F0B300F0001AD6F5D50F3
:100138000F0B300F0001AE6F5E380F0B300F000150
:10014800B06F5E500F0B300F0001B16F62380F0BAC
:10015800300F0001B36F62500F0B300F0001B46F06
:100168005F380F0B300F0001896F5F500F0B300F96
:1001780000018A6F5B380F0B300F00018C6F5B50EA
:100188000F0B300F00018D6F6C380F0B300F000113
:100198008F6F6C500F0B300F0001906F57380F0B9B
:1001A800300F0001806F57500F0B300F0001816F27
:1001B80058380F0B300F0001836F58500F0B300F5A
:1001C8000001846F59380F0B300F0001866F5950AA
:1001D8000F0B300F0001876F41044210D8A40BD0D9
:1001E800CB0E106E000E116EEA0E126EFF0E136E1D
:1001F80033EC1AF00BD0CB0E106E000E116EEE0E13
:10020800126EFF0E136E33EC1AF000D06FC025F09B
:10021800266A000E286E640E276EACEC14F025508A
:10022800300F0001BC6F000E226E640E216E6FC08D
:100238001FF0206AC8EC15F01FC025F020C026F07A
:10024800000E286E0A0E276EACEC14F02550300F05
:100258000001BD6F6FC01FF0206A000E226E0A0EEB
:10026800216EC8EC15F01F50300F0001BE6F450419
:100278004610D8A40BD0D30E106E000E116EEA0EE5
:10028800126EFF0E136E33EC1AF00BD0D30E106EF5
:10029800000E116EEE0E126EFF0E136E33EC1AF096
:1002A80000D080B802D0310E01D0300E0001DF6FCF
:1002B80000D03EC010F03FC011F040C012F0FAEC80
:1002C8000FF01050300F0001B66F3EC010F03FC065
:1002D80011F040C012F0FAEC0FF010C01FF011C07E
:1002E80020F0000E226E0A0E216EC8EC15F01F5089
:1002F800300F0001B86F3EC010F03FC011F040C091
:1003080012F0FAEC0FF010C025F011C026F0000E24
:10031800286E0A0E276EACEC14F02550300F000141
:10032800B96F4FC025F050C026F0000E286E640E3D
:10033800276EACEC14F02550300F0001CF6F000E83
:10034800286E0A0E276E4FC025F050C026F0ACEC80
:1003580014F025C01FF026C020F0000E226E0A0EF1
:10036800216EC8EC15F01F50300F0001D06F4FC040
:100378001FF050C020F0000E226E0A0E216EC8EC4D
:1003880015F01F50300F0001D16F51C025F052C039
:1003980026F0030E286EE80E276EACEC14F02550FC
:1003A800300F0001C16F030E226EE80E216E51C09E
:1003B8001FF052C020F0C8EC15F01FC025F020C077
:1003C80026F0000E286E640E276EACEC14F0255053
:1003D800300F0001C26F000E226E640E216E51C0F4
:1003E8001FF052C020F0C8EC15F01FC025F020C047
:1003F80026F0000E286E0A0E276EACEC14F025507D
:10040800300F0001C36F51C01FF052C020F0000E22
:10041800226E0A0E216EC8EC15F01F50300F000135
:10042800C46F170E0001E16FD70E0001E26F000ED6
:100438000001E36FFF0E0001E56FE00EE46F000EB0
:100448000001E76F000EE66F020E0001E86F010E73
:100458007EEC0CF0170E0001E16FDB0E0001E26F7D
:10046800000E0001E36FFF0E0001E56FE00EE46F80
:10047800000E0001E76F000EE66F020E0001E86F44
:10048800460E7EEC0CF0340E0001E16FAD0E00015B
:10049800E26F000E0001E36F070E0001E56FE469EB
:1004A800000E0001E76F000EE66F020E0001E86F14
:1004B8000F0E7EEC0CF0520E0001E16F890E000168
:1004C800E26F000E0001E36F070E0001E56FE00E1A
:1004D800E46F000E0001E76F000EE66F020E0001E8
:1004E800E86F0F0E7EEC0CF06E0E0001E16F800ECF
:1004F8000001E26F000E0001E36F070E0001E56FD7
:10050800E469000E0001E76F000EE66F010E0001BE
:10051800E86F0A0E7EEC0CF06E0E0001E16FCB0E58
:100528000001E26F000E0001E36F070E0001E56FA6
:10053800E469000E0001E76F000EE66F010E00018E
:10054800E86F5F0E7EEC0CF0820E0001E16FBC0ECE
:100558000001E26F000E0001E36FF80E0001E56F85
:10056800000EE46F000E0001E76F000EE66F010E4B
:100578000001E86F230E7EEC0CF0820E0001E16FA3
:10058800D30E0001E26F000E0001E36FF80E0001C8
:10059800E56F000EE46F000E0001E76F000EE66FD6
:1005A800010E0001E86F5F0E7EEC0CF0960E000164
:1005B800E16FCF0E0001E26F000E0001E36F070E3E
:1005C8000001E56FE00EE46F000E0001E76F000E1A
:1005D800E66F010E0001E86F0A0E7EEC0CF0960E35
:1005E8000001E16FDF0E0001E26F000E0001E36F12
:1005F800070E0001E56FE00EE46F000E0001E76FE3
:10060800000EE66F010E0001E86F230E7EEC0CF081
:10061800960E0001E16FB60E0001E26F000E0001B8
:10062800E36F070E0001E56FE00EE46F000E0001B6
:10063800E76F000EE66F010E0001E86F320E7EECE8
:100648000CF0960E0001E16FC10E0001E26F000E82
:100658000001E36F070E0001E56FE00EE46F000E86
:100668000001E76F000EE66F010E0001E86F5D0EF6
:100678007EEC0CF01200F7EC1BF093EC1AF0000E75
:10068800246E000E236E77EC1BF053C010F054C09C
:1006980011F0510E126EFF0E136E33EC1AF0010EAC
:1006A8000001E16F53C0E2F054C0E3F0FF0E000117
:1006B800E56FE469000E0001E76F000EE66F010EBA
:1006C8000001E86F010E7EEC0CF053C010F054C02E
:1006D80011F0880E126EFF0E136E33EC1AF00B0E2B
:1006E8000001E16F53C0E2F054C0E3F0F80E0001DE
:1006F800E56F1F0EE46F000E0001E76F000EE66F56
:10070800010E0001E86F180E7EEC0CF0000E1C6E56
:10071800280E1B6E000E1E6E170E1D6E000E206E2C
:10072800020E1F6EFF0E226EE00E216E98EC09F08D
:1007380053C010F054C011F0F60E126EFF0E136E77
:1007480033EC1AF0170E0001E16F53C0E2F054C009
:10075800E3F0FF0E0001E56FE00EE46F000E00010C
:10076800E76F000EE66F020E0001E86F2D0E7EECBB
:100778000CF053C010F054C011F0F00E126EFF0EC2
:10078800136E33EC1AF0000E1C6E6E0E1B6E000E0C
:100798001E6E170E1D6E000E206E020E1F6EFF0ECF
:1007A800226EE00E216E98EC09F0170E0001E16F41
:1007B80053C0E2F054C0E3F0FF0E0001E56FE00E15
:1007C800E46F000E0001E76F000EE66F020E0001F5
:1007D800E86F730E7EEC0CF053C010F054C011F0AB
:1007E800CB0E126EFF0E136E33EC1AF0280E0001BA
:1007F800E16F53C0E2F054C0E3F0000E0001E56F72
:100808001F0EE46F000E0001E76F000EE66F010E89
:100818000001E86F320E7EEC0CF053C010F054C0AB
:1008280011F0E00E126EFF0E136E33EC1AF0470E45
:100838000001E16F53C0E2F054C0E3F0F80E00018C
:10084800E56F000EE46F000E0001E76F000EE66F23
:10085800010E0001E86F320E7EEC0CF053C010F070
:1008680054C011F0C50E126EFF0E136E33EC1AF061
:10087800640E0001E16F53C0E2F054C0E3F0FF0ED4
:100888000001E56FE00EE46F000E0001E76F000E57
:10089800E66F010E0001E86F040E7EEC0CF053C009
:1008A80010F054C011F0D00E126EFF0E136E33EC20
:1008B8001AF0640E0001E16F53C0E2F054C0E3F097
:1008C800FF0E0001E56FE00EE46F000E0001E76F18
:1008D800000EE66F010E0001E86F4D0E7EEC0CF085
:1008E80053C010F054C011F0950E126EFF0E136E27
:1008F80033EC1AF0780E0001E16F53C0E2F054C0F7
:10090800E3F0000E0001E56F1F0EE46F000E00011A
:10091800E76F000EE66F010E0001E86F060E7EEC31
:100928000CF053C010F054C011F0D90E126EFF0E27
:10093800136E33EC1AF0780E0001E16F53C0E2F049
:1009480054C0E3F0000E0001E56F1F0EE46F000EC7
:100958000001E76F000EE66F010E0001E86F550E0B
:100968007EEC0CF053C010F054C011F0F90E126E6A
:10097800FF0E136E33EC1AF08C0E0001E16F53C0BA
:10098800E2F054C0E3F0FF0E0001E56FE469000EE9
:100998000001E76F000EE66F010E0001E86F0C0E14
:1009A8007EEC0CF053C010F054C011F0FC0E126E27
:1009B800FF0E136E33EC1AF08C0E0001E16F53C07A
:1009C800E2F054C0E3F0FF0E0001E56FE469000EA9
:1009D8000001E76F000EE66F010E0001E86F210EBF
:1009E8007EEC0CF053C010F054C011F0E50E126EFE
:1009F800FF0E136E33EC1AF08C0E0001E16F53C03A
:100A0800E2F054C0E3F0FF0E0001E56FE469000E68
:100A18000001E76F000EE66F010E0001E86F320E6D
:100A28007EEC0CF053C010F054C011F0F20E126EB0
:100A3800FF0E136E33EC1AF08C0E0001E16F53C0F9
:100A4800E2F054C0E3F0FF0E0001E56FE469000E28
:100A58000001E76F000EE66F010E0001E86F5F0E00
:100A68007EEC0CF012001E0E2F6E000E306E99D127
:100A7800250E3718D8B404D037502BEC1CF091D180
:100A8800000E366E000E356E000E346E05D03484BE
:100A98001C4A1D2A01D00BD01CC0F6FF1DC0F7FF51
:100AA8000800F550300AD8B4F2D701D0F5D71CC0E9
:100AB800F6FF1DC0F7FF0800F55018EC1BF0D8A092
:100AC8003BD0000E366E000E356E00D035C010F0EB
:100AD80036C011F0000E136E0A0E126EBCEC1AF03E
:100AE80010C035F011C036F0D00E2A6EFF0E2B6EF6
:100AF8001CC0F6FF1DC0F7FF0800F5502C6E2D6ACC
:100B08002A502C262B502D222C5035262D5036229B
:100B18001C4A1D2A1CC0F6FF1DC0F7FF0800F5502F
:100B280018EC1BF0D8A008D0D1D706D048D11BD0DC
:100B3800348E19D036D117D01CC0F6FF1DC0F7FF70
:100B48001C4A1D2A0800F5CF37F03750000AD8B4E0
:100B580036D1640AD8B407D00D0AD8B404D0110A23
:100B6800D8B4E6D71ED134BE15D02FC0D9FF30C0B7
:100B7800DAFFDECF32F0DDCF33F0020E2F26000E83
:100B8800302233AE4ED0030E3412326C331ED8B03E
:100B9800332A47D02FC0D9FF30C0DAFFDECF32F07A
:100BA800DDCF33F0020E2F26000E30223AD0010E90
:100BB800376E050E3718D8B43DD001D03BD037502A
:100BC800020D0C0EF324F66EFE0EF420F76E0900EB
:100BD800F550325C0900F5503358D8A02BD001D01D
:100BE80029D0372AE6D726D0010E376E040E3718DB
:100BF800D8B420D001D01ED03750020D160EF324E1
:100C0800F66EFE0EF420F76E0900F550325C09000E
:100C1800F5503358D8A00ED001D00CD0372AE6D7DB
:100C280009D03450800B000AD8B4C1D7800AD8B490
:100C3800DBD700D035503610D8B40AD034C02AF0EB
:100C4800030E2A16D8B404D03506D8A0360600D02C
:100C5800800E37BE7F0E2A6E3550375C3650800ABC
:100C68002A58D8B007D03750355E000E37BEFF0E71
:100C7800365A05D0000E366E000E356E00D034A4FC
:100C88001AD034C02AF0030E2A16D8B404D02D0E78
:100C98002BEC1CF000D035503610D8B426D0300ECE
:100CA8002BEC1CF03506D8A0360635503610D8B4D3
:100CB8001CD0F5D71AD035503610D8B40CD0200E29
:100CC8002BEC1CF03506D8A0360635503610D8B4B3
:100CD80002D0F5D700D034C02AF0030E2A16D8B4B3
:100CE80004D02D0E2BEC1CF000D037C031F053D0BF
:100CF80045D03150020D0C0EF324F66EFE0EF42092
:100D0800F76E0900F5CF12F00A00F5CF13F032C0E4
:100D180010F033C011F084EC17F010C017F011C0B8
:100D280018F0000E1A6E0A0E196EACEC18F0175077
:100D3800300F376E2CD032C010F033C011F0315064
:100D4800020D160EF324F66EFE0EF420F76E09005F
:100D5800F5CF12F00A00F5CF13F084EC17F010501D
:100D68000F0B2E6E2E50010D680EF324F66EFF0E3B
:100D7800F420F76E0800F5CF37F009D03450800B17
:100D8800000AD8B4B6D7800AD8B4D5D700D037501F
:100D98002BEC1CF000D031063128D8B402D0EED7A5
:100DA80000D01CC0F6FF1DC0F7FF1C4A1D2A080012
:100DB800F5CF37F03750D8B402D05AD600D0120049
:100DC800000E3D6E21EC17F062504CEC1AF01050FA
:100DD8006A6E5E504CEC1AF01050686E5D504CEC28
:100DE8001AF01050676E5B504CEC1AF01050666E9B
:100DF8005F504CEC1AF01050696E6C504CEC1AF0C5
:100E080010506B6EE8EC0BF06FEC0AF0C8D047049A
:100E18004810D8A407D0000E486E000E476E010E89
:100E28003B6E00D049044A10D8A407D0000E4A6E81
:100E3800000E496E010E3C6E00D04B044C10D8A435
:100E480007D0000E4C6E000E4B6E010E3A6E00D0AD
:100E58003A04D8A40ED03D2A060E3D18D8A403D0D3
:100E6800000E3D6E00D03D50DCEC07F0000E3A6EEF
:100E780000D03B04D8B42CD044D02AD0672A170E0F
:100E880067643AD0000E676E37D0682A3B0E6864F4
:100E980033D0000E686E30D06A2A3B0E6A642CD0BC
:100EA800000E6A6E29D0692A0C0E696425D0010EDD
:100EB800696E22D0662A1F0E66641ED0010E666E09
:100EC8001BD06B2A630E6B6417D0000E6B6E14D0A8
:100ED8003D50000AD8B4D2D7010AD8B4D6D7030AED
:100EE800D8B4DAD7010AD8B4DED7070AD8B4E2D71B
:100EF800010AD8B4E6D700D06FEC0AF0000E3B6EBA
:100F080000D03C04D8B432D04AD030D06750D8A4EE
:100F180003D0170E676E3ED067063CD06850D8A441
:100F280003D03B0E686E36D0680634D06A50D8A419
:100F380003D03B0E6A6E2ED06A062CD0020E696072
:100F480003D00C0E696E26D0690624D0020E6660A6
:100F580003D01F0E666E1ED066061CD06B50D8A438
:100F680003D0630E6B6E16D06B0614D03D50000A8A
:100F7800D8B4CCD7010AD8B4D1D7030AD8B4D6D7B5
:100F8800010AD8B4DBD7070AD8B4E0D7010AD8B425
:100F9800E5D700D06FEC0AF0000E3C6E00D080B2AE
:100FA80036D73FEC15F021EC17F03FEC03F01200B8
:100FB8002D6E240E2F6E1E0E2E6EC5D02E50440F91
:100FC800226E190E236E020E246E000E266E000E7F
:100FD800256E2F50020DF3500E0FF8EC18F0440E4A
:100FE800226E190E236E020E246E000E266E000E5F
:100FF800256E2F50020DF3500E0FF8EC18F0440E2A
:10100800226E190E236E020E246E070E266E2568B8
:101018000E0EF8EC18F0ABD0440E226E190E236EAB
:10102800020E246E000E266E000E256E0E0EF8ECD3
:1010380018F0440E226E190E236E020E246E070E4F
:10104800266E25682F500E0FF8EC18F090D0440E3D
:10105800226E190E236E020E246E000E266E000EEE
:10106800256E2F500E0FF8EC18F0440E226E190E54
:10107800236E020E246E070E266E25682F50020D71
:10108800F3500E0FF8EC18F072D0440E226E190EC1
:10109800236E020E246E000E266E000E256E2F5053
:1010A800020DF3500E0FF8EC18F02E50440F226E7C
:1010B800190E236E020E246E070E266EE00E256EA4
:1010C8000E0EF8EC18F053D02E50440F226E190E65
:1010D800236E020E246E000E266E000E256E0E0E76
:1010E800F8EC18F02E50440F226E190E236E020EE3
:1010F800246E070E266EE00E256E2F500E0FF8ECAC
:1011080018F035D02E50440F226E190E236E020EA1
:10111800246E000E266E000E256E2F500E0FF8EC72
:1011280018F02E50440F226E190E236E020E246EF4
:10113800070E266EE00E256E2F50020DF3500E0F8F
:10114800F8EC18F014D02D50000AD8B437D7010A9B
:10115800D8B462D7030AD8B47AD7010AD8B495D7D5
:10116800070AD8B4B1D7010AD8B4CCD700D0120036
:10117800000E3D6ED2EC18F059504CEC1AF010509D
:10118800596E58504CEC1AF01050586E57504CECA1
:101198001AF01050576E59C065F058C064F057C027
:1011A80063F011EC0FF08BEC12F0B3D04704481049
:1011B800D8A407D0000E486E000E476E010E3B6E95
:1011C80000D049044A10D8A407D0000E4A6E000E79
:1011D800496E010E3C6E00D04B044C10D8A407D0C9
:1011E800000E4C6E000E4B6E010E3A6E00D03A04A3
:1011F800D8A40ED03D2A030E3D18D8A403D0000E63
:101208003D6E00D03D50DCEC07F0000E3A6E00D089
:101218003B04D8B42CD03BD02AD0632A170E636481
:1012280003D0000E636E00D0DD0E1C6EFE0E1D6E28
:1012380037EC05F027D0642A3B0E646403D0000E17
:10124800646E00D09F0E1C6EFE0E1D6E37EC05F00E
:1012580019D0652A3B0E656403D0000E656E00D078
:101268005F0E1C6EFE0E1D6E37EC05F00BD03D5068
:10127800000AD8B4D2D7010AD8B4DDD7030AD8B443
:10128800E8D700D08BEC12F0000E3B6E00D03C0487
:10129800D8B42FD03ED02DD06350D8A403D0170E89
:1012A800636E02D0630600D0BF0E1C6EFE0E1D6E6C
:1012B80037EC05F029D06450D8A403D03B0E646EF7
:1012C80002D0640600D07F0E1C6EFE0E1D6E37EC39
:1012D80005F01AD06550D8A403D03B0E656E02D035
:1012E800650600D03F0E1C6EFE0E1D6E37EC05F035
:1012F8000BD03D50000AD8B4CFD7010AD8B4DBD7F9
:10130800030AD8B4E7D700D08BEC12F0000E3C6E7D
:1013180000D080B24BD746EC16F0D2EC18F021EC96
:1013280017F03FEC03F012001FC023F020C024F098
:10133800231E241E234A242A010E2324296E000E6C
:1013480024202A6E000E266E010E256E1FC023F083
:1013580020C024F0D89023362436231E241E234A86
:10136800242A23C027F024C028F0000E2C6E000E7B
:101378002B6E1FC02DF020C02EF01D501F24176E9D
:1013880021C018F022C019F01B5064EC1AF01F504D
:1013980000081D24176E21C018F022C019F01B5038
:1013A80064EC1AF01DC017F021C018F022C019F023
:1013B8001B501F2464EC1AF01DC017F021C018F050
:1013C80022C019F01F5000081B2464EC1AF078D0D2
:1013D8002ABE0BD02D06D8A02E06020E2726000EF8
:1013E80028222750292628502A222B4A2C2A020E46
:1013F8002526000E26222550292626502A221D5051
:101408002D24176E21C018F022C019F01B502B2470
:1014180064EC1AF01D502D24176E21C018F022C05C
:1014280019F02B5000081B2464EC1AF02D5000080A
:101438001D24176E21C018F022C019F01B502B2450
:1014480064EC1AF02D5000081D24176E21C018F006
:1014580022C019F02B5000081B2464EC1AF01D5010
:101468002B24176E21C018F022C019F01B502D2410
:1014780064EC1AF01D502B24176E21C018F022C0FE
:1014880019F02D5000081B2464EC1AF02B500008AA
:101498001D24176E21C018F022C019F01B502D24EE
:1014A80064EC1AF02B5000081D24176E21C018F0A8
:1014B80022C019F02D5000081B2464EC1AF000D04B
:1014C8002D502B5C2C50800A236E2E50800A2358F6
:1014D800D8A07ED7120067C025F0266A000E286EB5
:1014E8000A0E276EACEC14F02550300F0001A46FE3
:1014F80067C01FF0206A000E226E0A0E216EC8EC2B
:1015080015F01F50300F0001A56F68C025F0266A3E
:10151800000E286E0A0E276EACEC14F02550300F22
:101528000001A76F68C01FF0206A000E226E0A0E25
:10153800216EC8EC15F01F50300F0001A86F6AC06B
:1015480025F0266A000E286E0A0E276EACEC14F001
:101558002550300F0001AA6F6AC01FF0206A000EE4
:10156800226E0A0E216EC8EC15F01F50300F0001D4
:10157800AB6F69C025F0266A000E286E0A0E276E2A
:10158800ACEC14F02550300F00019B6F69C01FF0C0
:10159800206A000E226E0A0E216EC8EC15F01F504C
:1015A800300F00019C6F66C025F0266A000E286E79
:1015B8000A0E276EACEC14F02550300F00019E6F18
:1015C80066C01FF0206A000E226E0A0E216EC8EC5B
:1015D80015F01F50300F00019F6F6BC025F0266A71
:1015E800000E286E0A0E276EACEC14F02550300F52
:1015F8000001A16F6BC01FF0206A000E226E0A0E58
:10160800216EC8EC15F01F50300F0001A26F340E88
:101618000001E16FA40E0001E26F000E0001E36F0C
:10162800070E0001E56FE469000E0001E76F000E88
:10163800E66F020E0001E86F0F0E7EEC0CF0520E02
:101648000001E16F9B0E0001E26F000E0001E36FE5
:10165800070E0001E56FE00EE46F000E0001E76F72
:10166800000EE66F020E0001E86F0F0E7EEC0CF024
:101678001200356E800E3560A6D09F0E2D6401D005
:10168800A2D03350D8A403D0010E336E00D01F0E61
:101698002E6404D07E0E2E6403D000D03F0E2E6E32
:1016A800000E376E040E376401D08DD0530E2E60B5
:1016B80015D0E00E2E24106E116AFF0E1122000EB6
:1016C800136E050E126EBCEC1AF037501026000E81
:1016D8001122310E1024F66EFC0E14D0AD0E2E24FD
:1016E800106E116AFF0E1122000E136E050E126E97
:1016F800BCEC1AF037501026000E1122300E1024C0
:10170800F66EFD0E1120F76E0800F5CF34F000D00C
:10171800000E366E060E366401D053D034A023D0A6
:101728003304D8A40CD02D503624176E2FC018F0CF
:1017380030C019F03550372464EC1AF03ED03650DA
:101748003302F3502D24226E33C023F033C024F02B
:101758002FC025F030C026F037503302F35035241F
:10176800F8EC18F02AD02F50311804E13050321814
:10177800D8B423D03304D8A40CD02D503624176EF7
:1017880031C018F032C019F03550372464EC1AF023
:1017980014D036503302F3502D24226E33C023F078
:1017A80033C024F031C025F032C026F03750330260
:1017B800F3503524F8EC18F000D0362AD89034329B
:1017C800A9D7372A6FD71200000E246E000E236E99
:1017D80077EC1BF053C010F054C011F0510E126E8C
:1017E800FF0E136E33EC1AF0010E0001E16F53C0C7
:1017F800E2F054C0E3F0FF0E0001E56FE469000E6B
:101808000001E76F000EE66F010E0001E86F010EA0
:101818007EEC0CF053C010F054C011F0A20E126E02
:10182800FF0E136E33EC1AF0100E0001E16F53C077
:10183800E2F054C0E3F0F80E0001E56F1F0EE46F0C
:10184800000E0001E76F000EE66F020E0001E86F60
:10185800040E7EEC0CF053C010F054C011F0CB0E07
:10186800126EFF0E136E33EC1AF0280E0001E16FB2
:1018780053C0E2F054C0E3F0000E0001E56F1F0E04
:10188800E46F000E0001E76F000EE66F010E000125
:10189800E86F320E7EEC0CF0440E226E190E236EA9
:1018A800020E246E070E266E25680E0EF8EC18F050
:1018B80053C010F054C011F0E00E126EFF0E136EFC
:1018C80033EC1AF0470E0001E16F53C0E2F054C048
:1018D800E3F0F80E0001E56F000EE46F000E000162
:1018E800E76F000EE66F010E0001E86F320E7EEC26
:1018F8000CF012000001E96FE9C0EFF0E1C0EEF072
:10190800E2C010F0E3C011F066EC19F010C0EAF084
:1019180011C0EBF0000E0001ED6F000EEC6F6BD004
:101928007050D8B438D00001E851050D0001EF51CE
:10193800386E396AF3503826F450392239BE2BD024
:10194800395004E1810E385CD8A025D0000E000182
:10195800EF6F0001E851070DF3500001EE25030F6A
:101968000001EE6FA00E0001EE6504D0A00E00018C
:10197800EE6F00D00001EC510001E225D96E0001A4
:10198800ED510001E321DA6E200EDE18D8B42FD015
:1019980002D02DD000D0EEC02DF00001EC51000196
:1019A800E225D96E0001ED510001E321DA6EDF5026
:1019B8002E6EE4C02FF0E5C030F0E6C031F0E7C08D
:1019C80032F0E8C033F00001EF513DEC0BF00001BC
:1019D800E851060DF3500001EF250001EF6F800E6E
:1019E8000001EF6504D0800E0001EF6F00D0000108
:1019F800EC4BED2B00D00001EA510001EC5D000139
:101A0800EB510001ED59D8A08BD7120041044210C8
:101A1800D8A40BD04D504E10D8A407D033EC18F0F2
:101A2800000E4E6E010E4D6E00D041504210D8A4EB
:101A38001AD04D044E10D8A416D0000E4E6E000ECB
:101A48004D6E09EC18F0000E0001F16F000EF06FFA
:101A580054EC1CF0000EB9EC16F0000E0001F56F06
:101A6800000EF46F00D041044210D8A458D04D04A1
:101A78004E10D8A454D080B808D0000E0001F16FE1
:101A8800010EF06F0EEC00F000D0000E0001E36FC5
:101A9800200E0001E46F400E0001E56FEFEC16F038
:101AA8003AC0E6F03BC0E7F03CC0E8F024EC12F0A6
:101AB8000001D8B012D0000E0001F16F000EF06FD7
:101AC80054EC1CF0000EB9EC16F0000E0001F56F96
:101AD800000EF46F09EC18F000D00001F0050001C9
:101AE800F111D8A41CD0EEEC1BF033EC18F0000177
:101AF800F451B9EC16F00001F44BF52B0001F5BFD9
:101B08000ED00001F55105E1080E0001F45DD8A0E2
:101B180006D0000E0001F56F000EF46F00D0120021
:101B2800010E23EC1CF0000E176E960E166E5CEC80
:101B380018F0110E23EC1CF0010E176EF40E166E41
:101B48005CEC18F0B10E23EC1CF0010E1BEC1CF041
:101B58002C0E1BEC1CF02D0E1BEC1CF0B20E23EC13
:101B68001CF0010E1BEC1CF02C0E1BEC1CF02D0EB7
:101B78001BEC1CF0B30E23EC1CF0010E1BEC1CF04C
:101B88002C0E1BEC1CF02D0E1BEC1CF0010E1BEC9C
:101B98001CF02C0E1BEC1CF02D0E1BEC1CF0B40ED4
:101BA80023EC1CF0070E1BEC1CF0C00E23EC1CF001
:101BB800A20E1BEC1CF0020E1BEC1CF0840E1BEC9E
:101BC8001CF0C10E23EC1CF0C50E1BEC1CF0C20E61
:101BD80023EC1CF00A0E1BEC1CF0000E1BEC1CF096
:101BE800C30E23EC1CF08A0E1BEC1CF02A0E1BEC17
:101BF8001CF0C40E23EC1CF08A0E1BEC1CF0EE0E3D
:101C08001BEC1CF0C50E23EC1CF00E0E1BEC1CF09C
:101C1800200E23EC1CF0360E23EC1CF0C80E1BEC37
:101C28001CF03A0E23EC1CF0050E1BEC1CF0120005
:101C38001EC022F0236A246A1D34223601E3238061
:101C48002250256E2550D8A402D00ED06CD021C0C9
:101C580022F0236A246A2034223601E323802250AA
:101C68002A6E2A50D8A407D0000E1C6E000E1D6ED6
:101C7800000E1E6E58D02A507B0F25261EC02AF053
:101C880021502A1A800E2A161D8E208EFF0E1F162E
:101C9800FF0E2016000E2116000E266E000E276E6F
:101CA800000E286E070E296E00D01CA007D01F500A
:101CB8002626205027222150282200D0D8901E32D4
:101CC8001D321C32D8901F3620362136292EEDD7EA
:101CD80000D0090E296E00D01CA007D01F50262660
:101CE800205027222150282200D0D8901E321D32A1
:101CF8001C32D890283227322632292EEDD700D030
:101D080026C010F027C011F028C012F025C013F02B
:101D18002AC014F0F2EC12F010C01CF011C01DF033
:101D280012C01EF000D01200E00E23EC1CF0020ED0
:101D38001BEC1CF01C0E1BEC1CF0070E1BEC1CF023
:101D4800120E1BEC1CF0370E1BEC1CF0320E1BECB9
:101D58001CF0290E1BEC1CF02D0E1BEC1CF0290EA0
:101D68001BEC1CF0250E1BEC1CF02B0E1BEC1CF0C6
:101D7800390E1BEC1CF0000E1BEC1CF0010E1BECCA
:101D88001CF0030E1BEC1CF0100E1BEC1CF0E10EFB
:101D980023EC1CF0030E1BEC1CF01D0E1BEC1CF0BE
:101DA800070E1BEC1CF0060E1BEC1CF02E0E1BEC99
:101DB8001CF02C0E1BEC1CF0290E1BEC1CF02D0E3D
:101DC8001BEC1CF02E0E1BEC1CF02E0E1BEC1CF05A
:101DD800370E1BEC1CF03F0E1BEC1CF0000E1BEC2E
:101DE8001CF0000E1BEC1CF0020E1BEC1CF0100E7D
:101DF8001BEC1CF0130E23EC1CF0000E176E0A0EE1
:101E0800166E5CEC18F0290E23EC1CF0000E176E11
:101E1800640E166E5CEC18F01200000E246E000EB4
:101E2800236E77EC1BF053C010F054C011F0510E24
:101E3800126EFF0E136E33EC1AF0010E0001E16F03
:101E480053C0E2F054C0E3F0FF0E0001E56FE4690F
:101E5800000E0001E76F000EE66F010E0001E86F4B
:101E6800010E7EEC0CF053C010F054C011F0BA0E05
:101E7800126EFF0E136E33EC1AF0150E0001E16FAF
:101E880053C0E2F054C0E3F0F80E0001E56F1F0EF6
:101E9800E46F000E0001E76F000EE66F020E00010E
:101EA800E86F060E7EEC0CF053C010F054C011F031
:101EB800CB0E126EFF0E136E33EC1AF0280E0001D3
:101EC800E16F53C0E2F054C0E3F0000E0001E56F8B
:101ED8001F0EE46F000E0001E76F000EE66F010EA3
:101EE8000001E86F320E7EEC0CF0440E226E190EE3
:101EF800236E020E246E070E266E25680E0EF8EC71
:101F080018F01200E1EC19F013C06DF014C06EF077
:101F18006DAE42D07F0E6D14386E000E6E14396EA1
:101F2800381E391E384A392A800E38246D6E000E44
:101F380039206E6E6DC010F06EC011F0000E136E79
:101F4800090E126EBCEC1AF010C025F011C026F074
:101F5800000E286E050E276EACEC14F0251E261E0A
:101F6800254A262A200E2524436E000E2620446E7C
:101F7800FB0E1C6EFE0E1D6E6DC01EF06EC01FF0B7
:101F880043C020F044C021F037EC05F0800E6D10FE
:101F98006D6E6E506E6E29D06DC010F06EC011F06F
:101FA800000E136E090E126EBCEC1AF010C025F06C
:101FB80011C026F0000E286E050E276EACEC14F04A
:101FC800200E2524436E000E2620446E350E1C6E0E
:101FD800FF0E1D6E6DC01EF06EC01FF043C020F0D6
:101FE80044C021F037EC05F000D0120012C014F004
:101FF800156A166A1134143601E3158014501E6EE2
:102008001E50D8A402D039D063D0170E146E10C059
:1020180015F011C016F012C017F01428186E04D06D
:10202800D890173216321532182EFAD71550196E65
:10203800118EFF0E1016FF0E1116000E12161050FC
:102048001A6E11501B6E12501C6E1D6A8E0E1E5E8B
:102058001EAE10D01E50800A8F0FD8B003D00DD0FE
:1020680037D000D0D8901D321C321B321A321E3E97
:10207800F9D719D0170E1E6411D0000E106E000E7D
:10208800116E000E126E000E136E22D007D0D8907B
:102098001A361B361C361D361E0600D01E50D8B404
:1020A80002D0F5D700D01950D8B409D01D1E1C1E77
:1020B8001B1E1A6C000E1B221C221D2200D01AC0E7
:1020C80010F01BC011F01CC012F01DC013F000D09E
:1020D80012002DC031F0326A336A2C34313601E3F4
:1020E80032803150386E3850D8A402D00ED061D02A
:1020F80030C031F0326A336A2F34313601E332802E
:102108003150396E3950D8A407D0000E2B6E000E0E
:102118002C6E000E2D6E4DD0000E356E000E366EF4
:10212800000E376E3950890F385E2DC039F03050A7
:10213800391A800E39162C8EFF0E2B16FF0E2C1610
:10214800000E2D162F8EFF0E2E16FF0E2F16000EC8
:102158003016180E346E00D0D890353636363736ED
:102168002E502B5C2F502C5830502D58D8A007D00B
:102178002E502B5E2F502C5A30502D5A3580D89027
:102188002B362C362D36342EE7D700D035C010F03C
:1021980036C011F037C012F038C013F039C014F04F
:1021A800F2EC12F010C02BF011C02CF012C02DF080
:1021B80000D0120047044810D8A407D0000E486E7B
:1021C800000E476EF6EC1AF000D049044A10D8A465
:1021D80007D0000E4A6E000E496E39EC1CF000D094
:1021E8004B044C10D8A411D0000E4C6E000E4B6E50
:1021F80041504210D8A404D0000E426E010E03D004
:10220800000E426E000E416E00D021EC17F06250B5
:102218006018D8B43ED062C060F086EC0FF0EFECE6
:1022280016F03AC03EF03BC03FF03CC040F04504D9
:102238004610D8A403D07CEC1AF000D00AEC0DF0BC
:102248001E0E1C6EFE0E1D6E5DC01EF01F6A5EC067
:1022580020F0216A62C022F0236A5FC024F0256A58
:102268005BC026F0276A6CC028F0296A37EC05F0B5
:10227800180E1C6EFF0E1D6E4FC01EF050C01FF0D2
:1022880051C020F052C021F037EC05F00EEC00F000
:1022980000D01200226E800E226069D09F0E176453
:1022A80001D065D0FF0E1C6EFF0E1D6E185022C0A7
:1022B8001EF01F6A1E26000E1F221C501E261D50CF
:1022C8001F221FBE0AD01F5004E1800E1E5CD8A03A
:1022D80004D022500008800F186EFF0E1C6EFF0EEF
:1022E8001D6E195017C01EF01F6A1E26000E1F22F1
:1022F8001C501E261D501F221FBE0BD01F5004E16C
:10230800A00E1E5CD8A005D017500008A00F196EAB
:1023180000D017C013F0225018241C6E1C04146E31
:10232800175019241D6E1D04156E225085EC18F0E7
:102338001B50206E1AC021F08380839219C017F0B9
:102348001750D8B413D001D011D018C022F02250A1
:10235800D8B40AD001D008D02050DAEC1BF02150B4
:10236800DAEC1BF02206F3D71706EAD783821200AD
:10237800000E246E000E236E77EC1BF053C010F095
:1023880054C011F0510E126EFF0E136E33EC1AF09A
:10239800010E0001E16F53C0E2F054C0E3F0FF0EFC
:1023A8000001E56FE469000E0001E76F000EE66FBB
:1023B800010E0001E86F010E7EEC0CF053C010F026
:1023C80054C011F0AE0E126EFF0E136E33EC1AF0FD
:1023D8001A0E0001E16F53C0E2F054C0E3F0FF0EA3
:1023E8000001E56FE00EE46F000E0001E76F000EDC
:1023F800E66F020E0001E86F010E7EEC0CF053C090
:1024080010F054C011F0790E126EFF0E136E33ECFB
:102418001AF03C0E0001E16F53C0E2F054C0E3F043
:10242800070E0001E56FE469000E0001E76F000E7A
:10243800E66F010E0001E86F0F0E7EEC0CF0120043
:102448000001E5AF1ED0E3C0E9F0E4C0EAF0E5C062
:10245800EBF00001E91FEA1FEB1FE92B000EEA234E
:10246800EB23000E0001E9250001E36F000E0001D7
:10247800EA210001E46F800E0001EB210001E56F05
:1024880000D00001E8AF1ED0E6C0E9F0E7C0EAF0EE
:10249800E8C0EBF00001E91FEA1FEB1FE92B000E73
:1024A800EA23EB23000E0001E9250001E66F000E88
:1024B8000001EA210001E76F800E0001EB21000115
:1024C800E86F00D0000E0001E31B000E0001E41BC2
:1024D800800E0001E51B000E0001E61B000E000146
:1024E800E71B800E0001E81B0001E6510001E35DD7
:1024F8000001E7510001E4590001E8510001E559E4
:10250800D8B002D0D89002D0D88000D0120063C0D2
:1025180025F0266A000E286E0A0E276EACEC14F021
:102528002550300F0001926F63C01FF0206A000E23
:10253800226E0A0E216EC8EC15F01F50300F0001F4
:10254800936F64C025F0266A000E286E0A0E276E67
:10255800ACEC14F02550300F0001956F64C01FF0EB
:10256800206A000E226E0A0E216EC8EC15F01F506C
:10257800300F0001966F65C025F0266A000E286EA0
:102588000A0E276EACEC14F02550300F0001986F3E
:1025980065C01FF0206A000E226E0A0E216EC8EC7C
:1025A80015F01F50300F0001996F340E0001E16FD4
:1025B800920E0001E26F000E0001E36F070E0001AA
:1025C800E56FE469000E0001E76F000EE66F020E8A
:1025D8000001E86F0F0E7EEC0CF012001350D8B417
:1025E80005D0105011101210D8A40ED0000E106E85
:1025F800000E116E000E126E53D006D0132AD8901A
:1026080012321132103200D0000E1014156E000E66
:102618001114166EFE0E1214176E155016101710A0
:10262800D8B40ED0EBD70CD0132A010E1026000E0A
:102638001122000E1222D89012321132103200D01C
:10264800000E1014156E000E1114166EFF0E1214E3
:10265800176E155016101710D8B408D0E5D706D045
:102668001306D89010361136123600D011BE04D099
:10267800020E1360F5D700D013B002D0119E00D01F
:10268800D8901332135012121450D8B402D0128EAC
:1026980000D010C010F011C011F012C012F000D01C
:1026A80012000001E46F040ECB6E070ECA6E000E16
:1026B8001F6E800E206E400E216E0001E451E3EC87
:1026C8001AF018C01CF019C01DF01AC01EF01CEC3E
:1026D8000EF01CC02BF01DC02CF01EC02DF0000EFB
:1026E8002E6EA00E2F6E410E306E6DEC10F02BC0CA
:1026F800E1F02CC0E2F02DC0E3F0E1C010F0E2C040
:1027080011F0E3C012F0FAEC0FF010C0E5F011C0C0
:10271800E6F00001E4513A6E3B6A0001E5513A5C8B
:102728003B50800A3C6E0001E651800A3C58D8B004
:1027380004D00001E54BE62B00D0E5C03AF0030ECB
:102748003A163A38F00B0C09BD6EE5C03AF0E6C00F
:102758003BF03B343B323A323B343B323A323A502C
:10276800BE6E1200680E196E070E166E0E0E176EEC
:1027780017C013F019501AEC1AF0186E1850010B04
:10278800186E18502509186E17C012F018C013F0EB
:10279800195029EC1BF012EC1CF019501924A4EC68
:1027A80019F01650A4EC19F0B9EC1BF0D8801934C4
:1027B800A4EC19F0010E42EC19F0596E010E42EC2E
:1027C80019F0586E010E42EC19F0576E000E42ECEB
:1027D80019F0566E59507F0B596E58507F0B586E32
:1027E80057507F0B576E56508009566E12EC1CF0EE
:1027F80019501924A4EC19F01650A4EC19F05950EA
:10280800A4EC19F05850A4EC19F05750A4EC19F0A6
:102818005650A4EC19F009EC1CF01200000E3A6EA8
:10282800BCEC11F061EC14F03DD047044810D8A47A
:1028380007D0000E486E000E476E010E3B6E00D0AA
:1028480049044A10D8A407D0000E4A6E000E496EFB
:10285800010E3C6E00D04B044C10D8A405D0000EDD
:102868004C6E000E4B6E00D03B04D8A40CD06F2ADF
:102878006E0E6F6403D06E0E6F6E00D061EC14F0B4
:10288800000E3B6E00D03C04D8A40CD06F06320E6C
:102898006F6003D0320E6F6E00D061EC14F0000E42
:1028A8003C6E00D080B2C1D746EC16F0D2EC18F0DE
:1028B80021EC17F03FEC03F012006FC025F0266AF8
:1028C800000E286E640E276EACEC14F02550300F05
:1028D8000001C66F000E226E640E216E6FC01FF0DD
:1028E800206AC8EC15F01FC025F020C026F0000EA5
:1028F800286E0A0E276EACEC14F02550300F00013C
:10290800C76F6FC01FF0206A000E226E0A0E216E7C
:10291800C8EC15F01F50300F0001C86F4A0E0001B7
:10292800E16FC60E0001E26F000E0001E36FF80EC2
:102938000001E56F000EE46F000E0001E76F000E66
:10294800E66F020E0001E86F280E7EEC0CF0120014
:10295800000E2A6E28AE07D0276C281ED8B0282A69
:10296800010E2A6E00D026AE07D0256C261ED8B0E0
:10297800262A010E2A1A00D0000E2C6E000E2B6E8D
:1029880027502810D8B421D0010E296E05D0D89030
:1029980027362836292A00D028BE02D0F8D700D0FA
:1029A800D8902B362C362750255C28502658D8A08E
:1029B80006D02750255E2850265A2B8000D0D89064
:1029C80028322732292EECD700D02A50D8B405D087
:1029D8002B6C2C1ED8B02C2A00D02BC025F02CC074
:1029E80026F000D012000600EACF05F0E1CF06F08D
:1029F800E2CF07F0D9CF08F0DACF09F0F3CF0AF029
:102A0800F4CF0BF0F6CF0CF0F7CF0DF0F8CF0EF0B7
:102A1800F5CF0FF0F2A403D068EC1BF000D0F2A2BF
:102A280003D0ACEC1BF000D0F0A003D09FEC1BF05F
:102A380000D0F0A203D092EC1BF000D00FC0F5FF3D
:102A48000EC0F8FF0DC0F7FF0CC0F6FF0BC0F4FF77
:102A58000AC0F3FF09C0DAFF08C0D9FF07C0E2FFC8
:102A680006C0E1FF05C0EAFF04C0E9FF03C0FBFFA1
:102A780002C0FAFF1100680E346E000E356E6A50FF
:102A8800B2EC17F02D50626E6850B2EC17F02D5072
:102A98005E6E6750B2EC17F02D505D6E010E5C6EE5
:102AA8006650B2EC17F02D505B6E6950B2EC17F01F
:102AB8002D505F6E6B50B2EC17F02D506C6E12EC0F
:102AC8001CF034503424A4EC19F03550A4EC19F05F
:102AD8006250A4EC19F05E50A4EC19F05D50A4EC1F
:102AE80019F05C50A4EC19F05B50A4EC19F05F509D
:102AF800A4EC19F06C50A4EC19F009EC1CF01200CD
:102B0800216E800E21603FD09F0E176401D03BD00C
:102B1800FF0E1B6EFF0E1C6E185017C01DF01E6AAC
:102B28001D26000E1E221B501D261C501E221EBED6
:102B38000BD01E5004E1A00E1D5CD8A005D0175084
:102B48000008A00F186E00D01A501F6E19C020F090
:102B580017C013F021C014F0175018241B6E1B0463
:102B6800156E215085EC18F08380839207D01F5092
:102B7800DAEC1BF02050DAEC1BF000D0180618280D
:102B8800D8A4F5D783821200000E246E20AE07D099
:102B98001F6C201ED8B0202A010E246E00D022AE51
:102BA80005D0216C221ED8B0222A00D02150221034
:102BB800D8B41DD0010E236E05D0D8902136223608
:102BC800232A00D022BE02D0F8D700D021501F5CA3
:102BD80022502058D8A005D021501F5E2250205ADC
:102BE80000D0D89022322132232EF0D700D02450A2
:102BF800D8B405D01F6C201ED8B0202A00D01FC022
:102C08001FF020C020F000D0120000EEF0F0080EF7
:102C1800EE6AE806FDE100EE3EF0310EEE6AE806E7
:102C2800FDE1920EF66E360EF76E000EF86E01EEAE
:102C380000F010EE1FF00900F5CFEEFFE550E1506F
:102C4800FAE1A60EF66E2E0EF76E000EF86E00EE86
:102C580080F010EE61F00900F5CFEEFFE550E1508D
:102C6800FAE1C00EF66E380EF76E000EF86E090027
:102C7800F5CF6FF00900F5CF70F0000EF86E000187
:102C8800FFEF19F021EC17F05BC056F0680E346EB8
:102C9800070E356E6350B2EC17F02D50576E645026
:102CA800B2EC17F02D50586E6550B2EC17F02D505D
:102CB800596E59507F0B596E58507F0B586E5750AC
:102CC8007F0B576E56508009566E12EC1CF034502C
:102CD8003424A4EC19F03550A4EC19F05950A4ECA4
:102CE80019F05850A4EC19F05750A4EC19F05650AC
:102CF800A4EC19F009EC1CF01200126E000EAC6E78
:102D0800000EAB6E12A002D0AC8800D012A203D085
:102D1800AC8CAB8C00D012A402D0AC8E00D012A622
:102D280002D0AB8802D0AB8A00D012B8AC849E988F
:102D380012AA02D0AB8600D012AC02D09D8A01D074
:102D48009D9A9E9A12AE02D09D8801D09D9810C07F
:102D5800AFFF1150B06EAC8AAB8E949C948EACB819
:102D6800ACBE02D0948C00D01200106E19D083989B
:102D780001D08388839A02D0839803D0839C2AD079
:102D88008388838AFBD7839801D08388839A02D06B
:102D9800839803D0838C1ED08388838AFBD71AD06C
:102DA8001050000AD8B4E3D7010AD8B4E2D7030A0E
:102DB800D8B4E2D7010AD8B4E3D7070AD8B4E3D71E
:102DC800010AD8B4E2D7030AD8B4E2D7010AD8B4C2
:102DD800E3D700D01200D0EC1AF010C0E1F011C017
:102DE800E2F0E1C010F0E2C011F0000E136E050E23
:102DF800126EBCEC1AF010C018F011C019F0C3EC38
:102E080019F018C02BF019C02CF01AC02DF0000EC4
:102E18002E6E800E2F6E440E306E6DEC10F02BC0AF
:102E28003EF02CC03FF02DC040F03EC03AF03FC00D
:102E38003BF040C03CF000D01200680E146E000E4B
:102E4800136E12EC1CF014501424A4EC19F0135057
:102E5800A4EC19F0B9EC1BF0D8801434A4EC19F0E8
:102E6800010E42EC19F0626E010E42EC19F05E6E32
:102E7800010E42EC19F05D6E010E42EC19F05C6E29
:102E8800010E42EC19F05B6E010E42EC19F05F6E18
:102E9800000E42EC19F06C6E09EC1CF01200303098
:102EA8003A30303A30300030302F30302F30300068
:102EB80030303A30303A30300030312F30312F3026
:102EC800300030303A30303A30300030303A30303C
:102ED8003A303000302E303056003037354600302A
:102EE8003030300030373546004F464600303030FD
:102EF800004F4646002B3235002B37370030000094
:102F0800000E156E000E146E12501310D8B421D096
:102F1800010E166E05D0D89012361336162A00D038
:102F280013BE02D0F8D700D0D890143615361250F8
:102F3800105C13501158D8A006D01250105E1350D0
:102F4800115A148000D0D89013321232162EECD7B2
:102F580000D014C010F015C011F01200336E33C049
:102F680025F0266A000E286E0A0E276EACEC14F0C7
:102F780025C02FF026C030F02F3A303AF00E301628
:102F88002F500F0B3012F00E2F1633C01FF0206A8F
:102F9800000E226E0A0E216EC8EC15F01F502F2469
:102FA800316E20503020326E31C02DF032C02EF0FC
:102FB80000D0120010C014F011C015F0141E151E18
:102FC800144A152A1250142613501522D890143476
:102FD800166E1534176E17BE0BD0175004E1650E28
:102FE800165CD8A005D0000E176E640E166E00D0C1
:102FF80017AE05D0000E176E000E166E00D016C064
:1030080010F017C011F000D01200680E1E6E0E0EE0
:103018001A6E0F0E1B6E80881AC013F01E501AEC21
:103028001AF01C6E1C50FE0B1C6E1AC012F01CC04D
:1030380013F01E5029EC1BF01BC013F01E501AECA5
:103048001AF01D6E1D50FE0B1D6E1BC012F01DC028
:1030580013F01E5029EC1BF0B6EC13F01200680EAA
:103068001E6E0E0E1A6E0F0E1B6E1AC013F01E5037
:103078001AEC1AF01C6E1C5001091C6E1AC012F0D2
:103088001CC013F01E5029EC1BF01BC013F01E507F
:103098001AEC1AF01D6E1D50FE0B1D6E1BC012F0AF
:1030A8001DC013F01E5029EC1BF0B6EC13F01200F3
:1030B80016C010F017C011F0000E136EFA0E126E43
:1030C800BCEC1AF010C01AF011C01BF01AC018F0AE
:1030D8001BC019F0181E191E184A192AFF0E1824A9
:1030E8001A6EFF0E19201B6EB80EB16E1AC0D6FFED
:1030F8001B50D76EA192B18000D0A1A2FED7B1908B
:103108001200166E2A0E23EC1CF0000E1BEC1CF0AD
:1031180016505A241BEC1CF0000E1BEC1CF014502B
:103128005A241BEC1CF02B0E23EC1CF0000E1BEC9D
:103138001CF0135061241BEC1CF0000E1BEC1CF05F
:10314800155061241BEC1CF02C0E23EC1CF0120013
:1031580019501A10D8B41DD0010E1B6E05D0D89086
:1031680019361A361B2A00D01ABE02D0F8D700D05A
:103178001950175C1A501858D8A005D01950175E66
:103188001A50185A00D0D8901A3219321B2EF0D77C
:1031980000D017C017F018C018F01200680E146E8F
:1031A800070E136E12EC1CF014501424A4EC19F042
:1031B8001350A4EC19F0B9EC1BF0D8801434A4EC2B
:1031C80019F0010E42EC19F0596E010E42EC19F09B
:1031D800586E010E42EC19F0576E000E42EC19F0D1
:1031E800566E09EC1CF012002A6E2AC02BF02C6ACD
:1031F8000ED022C017F024C018F025C019F026C040
:103208001AF02B5084EC15F02B4A2C2A00D02350AE
:103218002AC027F0286A2726000E282227502B5C70
:103228002C50800A296E2850800A2958D8A0E1D746
:103238001200E4EC1BF0700ED36E32EC1CF0CFECF5
:103248001BF0F19E000ECE6E030ECD6E030ED56EF2
:10325800DB0ED66E0B0ED76EF294D58EF28AC4ECC6
:103268001BF0A00E106E860E116E010E126E000E6F
:10327800136E4AEC1CF059EC1BF01200106E5CEC5B
:103288001CF0000E116E070E116401D00FD03FEC38
:103298001CF083AE03D0D880123604D0125012240A
:1032A800126E00D058EC1CF0112AEDD71050D8B48B
:1032B80003D000EC1CF003D045EC1CF000D01250F9
:1032C80000D0120010C014F011C015F003D0144A39
:1032D800152A00D014C0D9FF15C0DAFFDF50D8A4D2
:1032E800F6D710C012F011C013F0121E131E124AA6
:1032F800132A14501224106E15501320116E00D08A
:1033080012002A0E23EC1CF0000E1BEC1CF0000E21
:103318001BEC1CF0000E1BEC1CF07F0E1BEC1CF0D1
:103328002B0E23EC1CF0000E1BEC1CF0000E1BEC0B
:103338001CF0000E1BEC1CF09F0E1BEC1CF0120086
:10334800106E000E116E070E116401D011D010AE70
:1033580003D05CEC1CF003D04FEC1CF000D03FEC29
:103368001CF058EC1CF010501024106E112AEBD7EA
:103378005CEC1CF03FEC1CF058EC1CF01200000E4A
:103388001B6E19AE07D0186C191ED8B0192A010E79
:103398001B6E00D018C010F019C011F0126A8E0E02
:1033A800136E1BC014F0F2EC12F010C018F011C02C
:1033B80019F012C01AF000D0120012EC1CF0480EDE
:1033C800176EAA0E166E17501724A4EC19F0165093
:1033D800A4EC19F0B9EC1BF0D8801734A4EC19F060
:1033E800000E42EC19F0156E09EC1CF015C013F034
:1033F800146A00D012001DEC19F0000E536E010E75
:10340800546E3FEC03F06068F6EC1AF021EC17F00C
:10341800D2EC18F009EC18F080B203D0DEEC10F012
:10342800FBD707EC1BF0F8D70CEF00F0156E12EC89
:103438001CF015501524A4EC19F01350A4EC19F045
:10344800B9EC1BF0D8801534A4EC19F0000E42EC4E
:1034580019F0146E09EC1CF0145000D0120010C0C2
:1034680014F011C015F005D0144A152A124A132A6F
:1034780000D012C0F6FF13C0F7FF14C0D9FF15C063
:10348800DAFF0800F5CFDFFFDF50D8A4EDD7120030
:10349800166E16C012F00F0E121616C013F0133A5D
:1034A8000F0E131613500A0D1250F324146E000E4B
:1034B800F420156E14C010F015C011F000D01200E1
:1034C8001A6E800E1A6013D09F0E176401D00FD0A9
:1034D80017C013F01A28146E1728156E1A5085ECA9
:1034E80018F019501BEC1CF018501BEC1CF01200C3
:1034F80043C010F044C011F06FC012F0136ADEEC44
:1035080017F010C04FF011C050F04F5055EC13F0A9
:10351800A8EC1AF016C051F017C052F012008382BE
:103528008390800EC76E300EC66E94EC0DF085EC5D
:1035380019F098EC0EF0360E23EC1CF0C00E1BECC4
:103548001CF0010E556E1200F2C018F0F3C019F00D
:1035580018C010F019C011F0000E136E3C0E126E58
:10356800BCEC1AF010C016F011C017F000D0120011
:1035780010501202F3CF14F0F4CF15F010501302CC
:10358800F350152611501202F350152614C010F0EE
:1035980015C011F000D01200C28200D0C2B2FED70E
:1035A800C450136E126AC3501224146E000E1320F6
:1035B800156E14C010F015C011F000D012001B6E6B
:1035C8001B50106E116A126A8E0E136E000E146E66
:1035D800F2EC12F010C018F011C019F012C01AF075
:1035E80000D01200000E506E000E4F6E4F5055EC7A
:1035F80013F0000E526E000E516E000E466E000E55
:10360800456E849412000DD080A603D012EC14F0FD
:1036180008D080A403D0BCEC08F003D0E4EC06F09A
:1036280000D080B2F1D71200126E000E116E3A0E61
:10363800126006D02F0E126403D0010E116E00D056
:1036480011C010F0103000D01200146E12EC1CF0F3
:1036580014501424A4EC19F01250A4EC19F01350CF
:10366800A4EC19F009EC1CF01200146E12EC1CF01A
:1036780014501424A4EC19F01250A4EC19F01350AF
:10368800A4EC19F009EC1CF0120020454345333333
:1036980030314C2046616C6C273230204C3132007E
:1036A80000000000000000000000480E156EAC0E7F
:1036B800126E020E136E155039EC1BF0EE0E126EE0
:1036C800155085EC1BF01200F294D59E000ED76EB3
:1036D800000ED76E8472CECFF2F00001F36B000EAD
:1036E800CE6ED58E1200000E176E800E186EA00ECC
:1036F800196E23C01AF024C01BF0000E4EEC11F016
:103708001200136E12EC1CF013501324A4EC19F0E1
:103718001250A4EC19F009EC1CF01200F0920D0EF6
:10372800016EFC0EE82EFED7012EFCD7000E4C6E63
:10373800010E4B6E1200F0900D0E016EFC0EE82E7D
:10374800FED7012EFCD7000E4A6E010E496E1200FC
:10375800F2920D0E016EFC0EE82EFED7012EFCD75C
:10376800000E486E010E476E120058EC1CF05CEC1F
:103778001CF03FEC1CF04FEC1CF058EC1CF0120055
:10378800F292F090F092F288F086F088F19CF19A2B
:10379800F188F28E12000F0E926E070E936E010ED4
:1037A800946E000E956E000E966E1200116E9E9627
:1037B800C9CF10F011C0C9FF00D0C7A0FED71200B2
:1037C800000E116E190E106E3C0E81EC16F0700E84
:1037D800D36E1200F90ECB6E050ECA6E4A0EBB6E82
:1037E8003C0EBA6E12008394000E176E640E166EAD
:1037F8005CEC18F0838412004FEC1CF03FEC1CF0DA
:1038080058EC1CF05CEC1CF0120058EC1CF04FEC6F
:103818001CF03FEC1CF05CEC1CF012005CEC1CF0A3
:103828003FEC1CF04FEC1CF058EC1CF01200126E30
:10383800839283801250DAEC1BF083821200126E9E
:10384800839283901250DAEC1BF083821200106E80
:1038580000D0ACA2FED710C0ADFF1200010EC26EA0
:103868000E0EC16EA90EC06E1200000E466E010E3D
:10387800456E848412009586060EE82EFED700D089
:1038880012003FEC1CF058EC1CF012003FEC1CF04E
:103898005CEC1CF01200839E959E00D000D01200B4
:1038A800000EBA6E819612008396959600D012008B
:0A38B800958E00D000D012004B01E5
:10FC300000000000000000005F0000000700070057
:10FC4000147F147F14242A7F2A1223130864623637
:10FC5000495620500008070300001C2241000041C3
:10FC6000221C002A1C7F1C2A08083E0808008070FD
:10FC70003000080808080800006060002010080430
:10FC8000023E5149453E00427F4000724949494683
:10FC90002141494D331814127F1027454545393C01
:10FCA0004A494931412111090736494949364649EE
:10FCB00049291E0000140000004034000000081410
:10FCC0002241141414141400412214080201590989
:10FCD000063E415D594E7C1211127C7F49494936DE
:10FCE0003E414141227F4141413E7F494949417F57
:10FCF000090909013E414151737F0808087F00410D
:10FD00007F41002040413F017F081422417F404055
:10FD100040407F021C027F7F0408107F3E4141412A
:10FD20003E7F090909063E4151215E7F0919294696
:10FD3000264949493203017F01033F4040403F1FAC
:10FD40002040201F3F4038403F63140814630304E1
:10FD50007804036159494D43007F41414102040841
:10FD60001020004141417F04020102044040404014
:10FD700040000307080020545478407F284444384A
:10FD80003844444428384444287F38545454180094
:10FD9000087E090218A4A49C787F08040478004413
:10FDA0007D40002040403D007F1028440000417FFE
:10FDB00040007C047804787C080404783844444487
:10FDC00038FC1824241818242418FC7C080404087F
:10FDD000485454542404043F44243C4040207C1C98
:10FDE0002040201C3C4030403C44281028444C908B
:10FDF00090907C4464544C440008364100000077E5
:10FE000000000041360800020102040201000A005D
:10FE10006400E803102701001000000100102530E5
:10FE200032783A253032783A25303278202530320F
:10FE3000782F253032782F253032780D0A20006453
:10FE4000656372656D656E746564207365636F6E5E
:10FE50006420666F7220616C61726D200D0A00690A
:10FE60006E6372656D656E746564207365636F6E35
:10FE70006420666F7220616C61726D200D0A0064EF
:10FE8000656372656D656E746564206D696E757409
:10FE90006520666F7220616C61726D200D0A0069C9
:10FEA0006E6372656D656E746564206D696E7574E0
:10FEB0006520666F7220616C61726D200D0A0064AE
:10FEC000656372656D656E74656420686F75722018
:10FED000666F7220616C61726D200D0A00696E633D
:10FEE00072656D656E74656420686F757220666FEB
:10FEF0007220616C61726D200D0A0054656D706531
:10FF0000726174757265203D202D256443206F72E7
:10FF1000202564460D0A0A006475747920637963AC
:10FF20006C65203D202564202052504D203D202529
:10FF300064200D0A0054656D706572617475726598
:10FF4000203D20256443206F72202564460D0A0A57
:10FF500000454345333330314C2046616C6C3230C0
:10FF60002046696E616C00003031323334353637EB
:10FF700038396162636465660020205365742046E9
:10FF8000616E2054656D700054656D7065726174AA
:10FF90007572653A0046414E205365742054656D74
:10FFA000700054696D6520536574757000002046BB
:10FFB000616E2053657475700000416C726D205342
:10FFC0006574757000416C61726D2054696D6500D7
:10FFD000416C61726D2053570046616E205357008B
:10FFE0004461746500566F6C74004F4E20004F469C
:10FFF000460052504D00432F00444300524D000034
:020000040020DA
:08000000FFFFFFFFFFFFFFFF00
:020000040030CA
:0E000000FF08191EFF8281FF0FC00FE00F40A6
:00000001FF
